:100000000C9408010C9430010C9430010C943001D4
:100010000C9430010C9430010C9430010C9430019C
:100020000C9430010C9430010C9430010C9430018C
:100030000C9430010C9430010C9430010C9430017C
:100040000C9473070C9430010C9430010C94300123
:100050000C9430010C9430010C9430010C9430015C
:100060000C94BD070C94300108000000BE92244996
:10007000123EABAAAA2ABECDCCCC4C3E00000080DA
:10008000BEABAAAAAA3E00000000BF000000803F4D
:100090000000000000084178D3BB4387D1133D190D
:1000A0000E3CC3BD4282AD2B3E68EC8276BED98F3A
:1000B000E1A93E4C80EFFFBE01C4FF7F3F0000007E
:1000C000000000407A10F35A00A0724E1809001088
:1000D000A5D4E80000E87648170000E40B540200BD
:1000E00000CA9A3B000000E1F505000080969800E8
:1000F000000040420F000000A08601000000102711
:1001000000000000E80300000000640000000000A0
:100110000A00000000000100000000002C76D888D2
:10012000DC674F0823DFC1DFAE59E1B1B796E5E3E5
:10013000E453C63AE651997696E8E6C28426EB89FE
:100140008C9B62ED407C6FFCEFBC9C9F40F2BAA59B
:100150006FA5F490055A2AF75C936B6CF9676DC133
:100160001BFCE0E40D47FEF520E6B500D0ED902E37
:100170000300943577050080841E080000204E0A95
:10018000000000C80C333333330F986E12831141D3
:10019000EF8D2114893BE65516CFFEE6DB18D1849E
:1001A0004B381BF77C1D901DA4BBE42420328472C5
:1001B0005E228100C9F124ECA1E53D27000000008A
:1001C000250028002B000000000023002600290045
:1001D00004040404040404040202020202020303ED
:1001E00003030303010204081020408001020408F5
:1001F0001020010204081020000000080002010085
:10020000000304070000000000000000DC08E20B0F
:1002100011241FBECFEFD8E0DEBFCDBF22E0A2E9A0
:10022000B1E001C01D92A239B207E1F711E0A0E0F0
:10023000B1E0EAEFF6E202C005900D92A239B107F3
:10024000D9F711E0C7E0D1E004C02197FE010E9478
:100250007811C630D107C9F70E9401090C947013B8
:100260000C94000008950895AF92BF92CF92DF9250
:10027000EF92FF920F931F93CF93DF936C017B015B
:100280008B01040F151FEB015E01AE18BF08C017EC
:10029000D10759F06991D601ED91FC910190F0815F
:1002A000E02DC6010995892B79F7C501DF91CF9122
:1002B0001F910F91FF90EF90DF90CF90BF90AF9084
:1002C0000895FC01448155816081718182E892E04A
:1002D0000C943401833081F028F4813099F082301D
:1002E000A9F008958730A9F08830C9F08430B1F4BE
:1002F000809180008F7D03C0809180008F778093F4
:100300008000089584B58F7784BD089584B58F7D6E
:10031000FBCF8091B0008F778093B00008958091DB
:10032000B0008F7DF9CFCF93DF93282F30E0F90114
:10033000E850FE4F8491F901EC51FE4FD491F90140
:10034000E053FE4FC491CC23A1F081110E946A01B9
:10035000EC2FF0E0EE0FFF1FEA53FE4FA591B49192
:10036000EC91ED2381E090E009F480E0DF91CF9102
:10037000089580E090E0FACF1F93CF93DF93282F6A
:1003800030E0F901E850FE4F8491F901EC51FE4F45
:10039000D491F901E053FE4FC491CC23A9F0162F5C
:1003A00081110E946A01EC2FF0E0EE0FFF1FE45470
:1003B000FE4FA591B4918FB7F894EC91111108C03C
:1003C000D095DE23DC938FBFDF91CF911F910895ED
:1003D000DE2BF8CF806480937C0080917A0080646B
:1003E00080937A0080917A0086FDFCCF809178001E
:1003F0009091790008953FB7F894809149029091C7
:100400004A02A0914B02B0914C0226B5A89B05C0B0
:100410002F3F19F00196A11DB11D3FBFBA2FA92F83
:10042000982F8827BC01CD01620F711D811D911D80
:1004300042E0660F771F881F991F4A95D1F70895EC
:100440008F929F92AF92BF92CF92DF92EF92FF92E4
:100450004B015C010E94FB016B017C010E94FB01CE
:100460006C197D098E099F09683E734081059105CD
:10047000A8F321E0821A9108A108B10888EEC80EFD
:1004800083E0D81EE11CF11C81149104A104B10485
:1004900029F7FF90EF90DF90CF90BF90AF909F90A3
:1004A0008F90089508952091D301260F3327331F8D
:1004B00021323105ECF420911C02FC0190E080E037
:1004C000243069F082E00895A091D3012191AC011C
:1004D0004D545E4FA40FB52FB11D2C930196861776
:1004E00098F38091D301680F6093D30180E0089561
:1004F00081E0089510921C0281E080931B0210920B
:10050000F60161E082E10E94BC0161E083E10E94AA
:10051000BC01E9EBF0E080818E7F808380818D7F5C
:10052000808388E48093B80085E48093BC000895BC
:10053000CF93DF9391E09093B2018823B9F0C091FB
:10054000B800D091BA008091BC008A7B8093BC0037
:1005500060E082E10E94BC0160E083E10E94BC0196
:100560000E947A02D093BA00C093B800DF91CF9175
:1005700008950895E091540280915302E81730F4F1
:10058000F0E0EE56FE4F808190E008958FEF9FEFF0
:10059000089590915402809153022FEF3FEF9817E6
:1005A00048F4E92FF0E0EE56FE4F208130E09F5FE7
:1005B00090935402C901089580915302909154027E
:1005C000891B990B0895CF92DF92EF92FF920F93C0
:1005D0001F93CF93DF937C01CB018A0120912202EC
:1005E000222389F0EB016B01C40ED51ECC15DD056D
:1005F00069F06991D701ED91FC910190F081E02DB6
:10060000C7010995F3CF642F0E945302C801DF91FF
:10061000CF911F910F91FF90EF90DF90CF900895B1
:10062000CF93DF931F92CDB7DEB76983209122026B
:100630002223F9F020915102203258F021E030E0DD
:10064000FC013383228390E080E00F90DF91CF9113
:10065000089580915202E82FF0E0ED5DFD4F998101
:1006600090838F5F809352028093510281E090E0EB
:10067000ECCF61E0CE0101960E945302F7CFCF92FA
:10068000DF92EF92FF920F931F93CF93DF93FC01C2
:10069000C48121E020932202C093430210925202AF
:1006A000109251028385682B80E792E00E9410032C
:1006B000D0915102D13208F092C00E94FB016B012F
:1006C0007C0180911C02811165C082E080931C0234
:1006D00081E080931B028FEF80931A02109219021F
:1006E000D0931802A3E2B2E0E8EFF1E080E0D81383
:1006F00085C01092F7018091F701CC0FC82BC093F1
:10070000F7018091F601813009F07CC01092F6016A
:100710000E94FB016B017C018091F7018093BB007B
:1007200080911E0290911F02A0912002B09121029F
:10073000892B8A2B8B2B99F00E94FB0100911E02C2
:1007400010911F0220912002309121026C197D0925
:100750008E099F090617170728073907E0F18091CE
:10076000BC0083FDD9CF85EC8093BC000E94FB01C7
:100770006B017C0180911C02823009F445C080919C
:100780001A028F3F61F180911A02803241F180910B
:100790001A0225C080911E0290911F02A091200292
:1007A000B0912102892B8A2B8B2B09F48ACF0E94CE
:1007B000FB0100911E0210911F0220912002309136
:1007C00021026C197D098E099F0906171707280752
:1007D000390708F076CF80911D020E94980210928E
:1007E00052021092510210922202DF91CF911F917A
:1007F0000F91FF90EF90DF90CF9008959D9191938E
:100800008F5F75CF85EEB0CF80911E0290911F0251
:10081000A0912002B0912102892B8A2B8B2B09F405
:10082000A9CF0E94FB0100911E0210911F0220918E
:100830002002309121026C197D098E099F0906174B
:1008400017072807390708F095CFC5CF90E080E05B
:10085000089561E083E00C94BC010F931F93CF9344
:100860008C01C62F0E943F036C2F6460C8010E9458
:100870003F036C2F6B7FC8010E943F0383EC90E025
:100880000197F1F7CF911F910F9108950F931F9347
:10089000CF93DF938C01D62FC42F607F642B0E94EF
:1008A0002D0480E1D89FB00111246C2BC801DF9189
:1008B000CF911F910F910C942D04CF93DF93CDB75F
:1008C000DEB728970FB6F894DEBF0FBECDBF98E015
:1008D000E8E2F1E0DE01119601900D929A95E1F7C0
:1008E00090918A02981710F48FEF890F90E0880F8B
:1008F000991F21E030E02C0F3D1F820F931FFC0158
:100900006081606840E082E892E028960FB6F89433
:10091000DEBF0FBECDBFDF91CF910C94460441E006
:100920000E94460481E090E008950F931F93CF93B7
:10093000DF938B0198E0899FB0011124606440E04F
:1009400082E892E00E944604E801085F1F4F699127
:1009500082E892E00E948F04C017D107C1F7DF91AF
:10096000CF911F910F910895CF93DF93CDB7DEB74D
:10097000A1970FB6F894DEBF0FBECDBF19A2805D60
:1009800088A3BE01605E7F4FFB0101900020E9F764
:100990003197AF01461B570B82E892E00E94340169
:1009A000A1960FB6F894DEBF0FBECDBFDF91CF91F9
:1009B00008950F931F93CF93DF93EC018881998162
:1009C000009759F02A813B812617370730F081E0E4
:1009D000DF91CF911F910F9108958B016F5F7F4F32
:1009E0000E94A312009759F0998388831B830A837E
:1009F0002C813D81232B59F7FC011082E8CF80E048
:100A0000E7CFEF92FF920F931F93CF93DF93611580
:100A1000710541F480E0DF91CF911F910F91FF901C
:100A2000EF90089541155105B1F07B01EC010C8167
:100A30001D81040F151FB8010E94D904882351F3AA
:100A4000288139818C819D81B701820F931F0E947B
:100A500069131D830C8381E0DECFCF93DF93EC011C
:100A600088819981009711F00E941A1219821882C8
:100A70001D821C821B821A82DF91CF910895CF9331
:100A8000DF93EC01FB0144815581608171810E94FB
:100A90000105811103C0CE010E942D05CE01DF9119
:100AA000CF910895EF92FF920F931F93CF93DF930F
:100AB000EC017B018A01BA010E94D90481110BC0AB
:100AC000CE010E942D05CE01DF91CF911F910F9194
:100AD000FF90EF9008951D830C83B7018881998161
:100AE0000E946913F0CFFB0101900020E9F73197D4
:100AF000AF01461B570B0C9452050F931F93CF93D6
:100B0000DF93CDB7DEB762970FB6F894DEBF0FBEA6
:100B1000CDBF8C01CB01F8011182108213821282A9
:100B2000158214824AE0BE016F5F7F4F0E94040C61
:100B3000BE016F5F7F4FC8010E94730562960FB6BA
:100B4000F894DEBF0FBECDBFDF91CF911F910F9103
:100B50000895FC0111821082138212821582148280
:100B6000FB0101900020E9F73197AF01461B570BBD
:100B70000C945205FC0180819181009711F00C9436
:100B80001A12089585ED8093BC0080911E02909109
:100B90001F02A0912002B09121020796A11DB11D54
:100BA00023E0B695A795979587952A95D1F720913B
:100BB000BC0024FD03C010921C02089540911E0247
:100BC00050911F026091200270912102452B462B0B
:100BD000472B69F30097A105B10541F025E32A955C
:100BE000F1F700000197A109B109E1CF80911D0241
:100BF0000C9498020F931F93CF93DF93CDB7DEB77A
:100C0000AD970FB6F894DEBF0FBECDBF8230910511
:100C1000E1F08330910581F10197E9F085E00E94D0
:100C20005D0481E00E94B4048AE00E945D0480E0DB
:100C30000E94B404AD960FB6F894DEBF0FBECDBFD0
:100C4000DF91CF911F910F91089581E00E945D0483
:100C500084E00E94B40485E00E945D0481E00E946B
:100C6000B4048AE00E945D0480E00E94B4048FE036
:100C70000E945D0483E0DCCF81E00E945D0460910E
:100C80005C0270915D0280915E0290915F0219A6F4
:100C900018A61BA61AA61DA61CA68E010F5F1F4F25
:100CA00022E044E00E94E60B009709F442C0BC0138
:100CB000CE0188960E947305609160027091610276
:100CC000CE0101960E947D051BA21AA21DA21CA2A4
:100CD0001FA21EA269817A816115710531F04D81D3
:100CE0005E81CE0182960E94520541E050E062E5AD
:100CF00071E0CE0182960E940105811104C0CE01EF
:100D000082960E942D05BE01685D7F4FCE018296BE
:100D10000E943F050E946101CE0182960E94BA05A1
:100D2000CE0101960E94BA05CE0188960E94BA05AE
:100D300081CFCE0188960E942D05BECFCF93DF9341
:100D4000CDB7DEB72C970FB6F894DEBF0FBECDBF80
:100D500040E061E082E892E00E9446048BE39FE17C
:100D60000197F1F780E00E945D0480916802909104
:100D700069028A30910509F488C074F40097F1F093
:100D8000019709F45CC02C960FB6F894DEBF0FBE35
:100D9000CDBFDF91CF9108958233910509F49EC0B4
:100DA0004EE050E06BE771E08634910561F782E830
:100DB00092E00E94340183E090E03EC060916A02BC
:100DC00070916B02CE0107960E947D051A821982EE
:100DD0001C821B821E821D8260917C0270917D02AA
:100DE0006115710541F04091800250918102CE0160
:100DF00001960E94520543E050E064E571E0CE01A7
:100E000001960E940105811104C0CE0101960E9445
:100E10002D05BE01695F7F4FCE0101960E943F05FF
:100E20000E946101CE0101960E94BA05CE0107968B
:100E30000E94BA0590E080E00E94FA05A4CF1092CB
:100E40006702109266026091200170912101CE012B
:100E500007960E947D0568E571E0CE0101960E942B
:100E6000A905BE01695F7F4FCE0101960E943F0533
:100E70000E946101CE0101960E94BA05CE0107963B
:100E80000E94BA0581E090E0D7CF81E090E0909396
:100E90006702809366026091200170912101CE016A
:100EA00007960E947D0562E671E0CE0101960E94E0
:100EB000A905BE01695F7F4FCE0101960E943F05E3
:100EC0000E946101CE0101960E94BA05CE010796EB
:100ED0000E94BA0582E090E00E94FA054EE050E0E0
:100EE0006CE671E064CF1F920F920FB60F9211243F
:100EF0002F933F938F939F93AF93BF93809145021E
:100F000090914602A0914702B0914802309144026C
:100F100023E0230F2D3758F50196A11DB11D209315
:100F200044028093450290934602A0934702B093F7
:100F300048028091490290914A02A0914B02B091DF
:100F40004C020196A11DB11D8093490290934A0263
:100F5000A0934B02B0934C02BF91AF919F918F91A0
:100F60003F912F910F900FBE0F901F90189526E87C
:100F7000230F0296A11DB11DD2CF1F920F920FB663
:100F80000F9211242F933F934F935F936F937F930F
:100F90008F939F93AF93BF93EF93FF938091B9008B
:100FA000887F803609F44AC0F0F5883209F4A7C07A
:100FB00018F5803109F49BC0B8F4882309F4F9C00E
:100FC000883009F494C0FF91EF91BF91AF919F9148
:100FD0008F917F916F915F914F913F912F910F90E2
:100FE0000FBE0F901F901895883109F488C0803289
:100FF00051F780931A0214C0803409F49DC040F464
:101000008033B9F38833F9F680931A0285ECB0C0C7
:10101000803509F485C0883509F496C0883499F67E
:101020000E94C205D0CF883909F48CC038F58837C2
:1010300029F050F4883611F0803729F683E0809348
:101040001C021092F50157C0883809F47BC0803922
:1010500019F0803809F0B7CF8091F501803208F09F
:1010600071C0E091F50181E08E0F8093F5018091D0
:10107000BB00F0E0EB52FE4F80833DC0803B39F077
:10108000E0F4803A09F479C0883A09F09CCF84E012
:1010900080931C021092D4011092D301E0914F0270
:1010A000F091500209958091D30181110FC081E028
:1010B0008093D3011092B30109C0803C09F4A6CFFC
:1010C000883C09F4A3CF883B09F07DCFE091D4019F
:1010D00081E08E0F8093D401F0E0ED54FE4F8081CB
:1010E0008093BB009091D4018091D30129C080915D
:1010F000F7018093BB0085EC8093BC0064CF909196
:10110000190280911802981758F5E091190281E0B0
:101110008E0F80931902F0E0E850FE4F8081E9CFF6
:10112000E091190281E08E0F809319028091BB003B
:10113000F0E0E850FE4F80839091190280911802F0
:101140009817C8F285E8D8CFE091190281E08E0F98
:10115000809319028091BB00F0E0E850FE4F80833D
:1011600080911B0281115CCF81E08093F60184EABB
:101170008093BC0010921C0226CF85EC8093BC00AB
:1011800010921C028091F501803230F4E091F5015B
:10119000F0E0EB52FE4F10826091F50170E0E091BB
:1011A0004D02F0914E0285ED91E009951092F50106
:1011B0000ACF10921A0234CFE0E7F2E013821282D3
:1011C00088EE93E0A0E0B0E084839583A683B783A4
:1011D00088E391E091838083E2E8F2E01382128257
:1011E0008AE491E09183808387E2848380E1818730
:1011F00082E0828713866AE871E08CE792E00C94C3
:10120000A905789484B5826084BD84B5816084BD6D
:1012100085B5826085BD85B5816085BD80916E0094
:10122000816080936E0010928100809181008260C5
:101230008093810080918100816080938100809102
:1012400080008160809380008091B10084608093F1
:10125000B1008091B00081608093B00080917A00ED
:10126000846080937A0080917A00826080937A0013
:1012700080917A00816080937A0080917A00806802
:1012800080937A001092C10010925402109253027F
:1012900010925202109251020E947A0282E391E06F
:1012A0009093500280934F0283E391E090934E021B
:1012B00080934D021092870280918C02823018F048
:1012C00098E09093870280938A0262E370E080E066
:1012D00090E00E94200260918D0282E892E00E94DC
:1012E0003F0368EE73E080E090E00E94200260E33C
:1012F00082E892E00E942D04CBE4D6E4CE0101976F
:10130000F1F760E382E892E00E942D042197F1F763
:1013100060E382E892E00E942D0483E592E0019769
:10132000F1F760E282E892E00E942D04609187026A
:10133000606240E082E892E00E94460484E080938C
:10134000880240E06CE082E892E00E94460440E0BF
:1013500061E082E892E00E944604CBE3DFE1CE0147
:101360000197F1F782E08093890240E066E082E82D
:1013700092E00E94460440E062E082E892E00E942F
:1013800046042197F1F788E080938D0260E082E8BF
:1013900092E00E943F030E949E0668E171E080E0B7
:1013A0000E94950460E171E081E00E94950468E08C
:1013B00071E082E00E94950460E071E083E00E94A9
:1013C000950480E0282E80E0382E96E4892E912C1A
:1013D00001E010E00E94290480E00E94EA017C0103
:1013E000909361028093600281E00E94EA01BC0157
:1013F000990F880B990B0E94770E60935C02709393
:101400005D0280935E0290935F02B701FF0C880B30
:10141000990B0E94770E9B01AC0160E070EC8FE7A6
:1014200094E40E94461020E030E040E85FE30E9430
:10143000D90F20E030E44CE156E40E94D60E0E9421
:10144000FB106B017C012CE63FEC48E554E30E9465
:10145000D60EA70196010E94D60EA70196010E9402
:10146000D60E2B013C0126ED34E649E759E3C701CE
:10147000B6010E94D60E2BEC38E444E85AE30E94F1
:10148000DA0F9B01AC01C301B2010E94DA0F9B018C
:10149000AC0160E070E080E89FE30E94461023E327
:1014A00033E948E853E40E94D90F20E030E040E1FE
:1014B00051E40E94D60E20E030E040EA50E40E9461
:1014C000461020E030E040E052E40E94DA0F6B0169
:1014D0007C01C0925802D0925902E0925A02F092D6
:1014E0005B020E94B8102B015B0170936B0260934A
:1014F0006A0220E030E048E453E4C701B6010E94EC
:10150000EE1018164CF460E082E00E94BC0181E00D
:10151000809357020E94290480915602811176C05F
:1015200080915702811162C0C091550260912001E3
:1015300070912101072E000C880B990B0E94770EE9
:101540009B01AC01C701B6010E94700E87FF3FC02E
:10155000C11115C06EE871E08CE792E00E9473053E
:101560000E94290460ED77E080E090E00E94200274
:1015700061E082E00E94BC0181E08093550281E03D
:101580000E94EA010A977CF481E08093570210924E
:1015900055028093560260E082E00E94BC0160E048
:1015A00083E00E94BC0180916F028823E1F1809169
:1015B0006E02811105C00E949E0681E080936E023A
:1015C0002114310409F406CF0E94000003CFCC237C
:1015D00051F36AE871E08CE792E00E94730560E0E5
:1015E00082E00E94BC0110925502DDCF0E942904C6
:1015F00060E082E00E94BC0182E390E09093690287
:101600008093680281E080936F02CDCF60E083E039
:101610000E94BC0160E082E00E94BC0190926902DD
:1016200080926802EFCF80916C0290916D02A816B3
:10163000B90661F0809168029091690250926D0242
:1016400040926C02892B11F40E949E061092630254
:1016500010926202C0E0C0906202D090630294E0F7
:10166000C916D10494F4F601E05DFE4F80810E941A
:101670009301892B11F4C1E0CC0D4FEFC41AD40AA9
:10168000D0926302C0926202E6CFEC2EEE2001F10E
:101690001092630210926202E12CC0906202D0901C
:1016A000630284E0C816D1048CF7F601E05DFE4FBA
:1016B00080810E949301892B19F4EE24E394EC0CB1
:1016C0009FEFC91AD90AD0926302C0926202E5CF95
:1016D000CC2309F475CF8091680290916902C230E1
:1016E00099F128F4C13089F00E949E0669CFC33079
:1016F00009F444C0C430C1F780916402909165023E
:101700009093690280936802EFCF20916602309136
:101710006702232B51F080912001909121010196C5
:101720009093210180932001DFCF9C012F5F3F4FD9
:10173000909365028093640222303105F4F1109297
:10174000690210926802D0CF209166023091670240
:10175000232B31F080912001909121010197E0CF5E
:101760009C0121503109909365028093640237FFF8
:1017700024C01093690200936802B6CF20916602DC
:1017800030916702232B79F0809164029091650279
:1017900090936902809368026091200190E080E05C
:1017A0000E94940FA1CF90936502809364024AE057
:1017B000489F9001499F300D112430936902209376
:1017C000680292CF8CE792E00C94BA05EF920F93E7
:1017D0001F93CF93DF93E80134E047FD34E1042EFB
:1017E000000C550B57FF03C0519541955109E32E4D
:1017F000022F242FAE010E94290CCE01DF91CF9140
:101800001F910F91EF900895BB274A3031F499232F
:1018100022F4BDE2909581959F4F0C94100CBB274C
:10182000FB015527AA27880F991FAA1FA41710F09C
:10183000A41B83955051B9F7A05DAA3308F0A95DA8
:10184000A193009779F7B111B1931192CB010C9448
:10185000600EA9E0B0E0EFE2FCE00C94A80F6A0192
:10186000F22EB02E102FFBE3AF2EA01608F41BE3D0
:101870001F5F012F27E0AE014F5F5F4F0E94880D71
:10188000BC018981982F9970913009F43FC09BE287
:10189000E1FC04C09E2D9170E0FC3AC05E2D5071B9
:1018A000E82FE87083FF46C084E0911101C083E017
:1018B000EF2DE81B8F1508F0E0E0D6018E2F20E217
:1018C000552351F1992329F0D6019C93C601019625
:1018D0006C0196012D5F3F4FE2FE24C08EE4D601DD
:1018E0008C9391E411969C93119712968C93D90145
:1018F0008E2F90E281111BC0E20FF32FF11D108299
:101900008EEF9FEF2996ECE00C94C40F9DE2C6CFBA
:1019100090E2C4CF2D9381508111FCCFCE0ED11C0B
:10192000E0E0D0CF8EE6D6018C9391E6DBCF9D939D
:101930008150E0CF482F447082FF3DC084E0911178
:1019400001C083E08F1510F4EF2DE81BD6018E2F18
:1019500020E2552309F1992329F0D6019C93C60171
:1019600001966C0196012D5F3F4FE2FE1BC089E49A
:10197000D6018C938EE411968C93119786E412967F
:101980008C93D9018E2F90E2882309F4B5CF9D93D3
:101990008150FACF2D9381508111FCCFCE0ED11CF6
:1019A000E0E0D9CF89E6D6018C938EE611968C9330
:1019B000119786E6E4CF9B0177FF02C030E020E07C
:1019C000A1E0B0E0911102C0B0E0A0E0F9013196D1
:1019D000AE0FBF1F8B2C912CBB2009F461C05401AA
:1019E000EFEFAE1ABE0AAA0DBB1DFA161B0619F0C0
:1019F00014F04F2D4A1B511188C0E3FC59C07601E9
:101A0000A42FB0E2A1114FC0C40ED11C992309F438
:101A10005BC040E0D6011196F60190836D0155231D
:101A200009F448C0012F060F9A81582F507184FF86
:101A300003C0913309F4015010160CF047C009306F
:101A400008F008E0EEE2FE2E5B01A01AB108850165
:101A50009194819491082F3F320729F4D601FC928A
:101A6000F60131966F016217730794F1021713079D
:101A70007CF5DB01A21BB30BAA24A394B12CAC0E02
:101A8000BD1EAA0DBB1D11968C9121503109D601A6
:101A9000119628153905F4F0F60180836D01DBCF2E
:101AA000B12CA12CA0CFF701B1937F01A150AACFF7
:101AB0009111B0CFD601942F50E302C05D939150A5
:101AC0009111FCCFC40ED11C40E0ACCF01E0BACFE5
:101AD00080E3DBCF6217730731F4963388F49533D4
:101AE00011F4552369F0F6018083FD01842F90E203
:101AF000811108C0A40FB11D1C9290E080E002CFBC
:101B000081E3F1CF91938150F3CF911183CF8ACFAD
:101B1000283008F027E03327DA01990F311D87FDBF
:101B2000916000966105710539F432602E5F3D9336
:101B300030E32A95E1F708959F3F30F08038710532
:101B4000610509F03C5F3C5F3D93913008F080688F
:101B5000911DDF93CF931F930F93FF92EF92192F55
:101B6000987F9695E92F96959695E90FFF27E45E65
:101B7000FE4F99273327EE24FF24A701E7010590A4
:101B80000894079428F4360FE71EF81E491F511DCC
:101B9000660F771F881F991F0694A1F70590079479
:101BA00028F4E70EF81E491F561FC11D770F881F26
:101BB000991F661F0694A1F70590079428F4F80E64
:101BC000491F561FC71FD11D880F991F661F771FFA
:101BD0000694A1F70590079420F4490F561FC71FDC
:101BE000D81F990F661F771F881F0694A9F7849145
:101BF0001095177041F0D695C79557954795F7946E
:101C0000E7941A95C1F7E2ECF0E06894159015910D
:101C100035916591959105907FE27395E118F10AF0
:101C2000430B560BC90BD009C0F7E10CF11E431F43
:101C3000561FC91FD01D7EF4703311F48A95E6CF6C
:101C4000E894015030F0080F0AF40027021708F456
:101C5000202F2395022F7A3328F079E37D932A955C
:101C6000E9F710C07D932A9589F6069497956795B4
:101C7000379517951794E118F10A430B560BC90BCA
:101C8000D00998F023957E9173957A3308F070E32C
:101C90007C932013B8F77E9170617D9330F083952B
:101CA00071E37D9370E32A95E1F71124EF90FF90A3
:101CB0000F911F91CF91DF91992787FD90950895FE
:101CC000DC01FC01672F71917723E1F7329704C0A3
:101CD0007C916D9370836291AE17BF07C8F308952E
:101CE0000E94B20E08F481E00895E89409C097FBC1
:101CF0003EF490958095709561957F4F8F4F9F4FE3
:101D00009923A9F0F92F96E9BB279395F695879526
:101D100077956795B795F111F8CFFAF4BB0F11F4E9
:101D200060FF1BC06F5F7F4F8F4F9F4F16C0882390
:101D300011F096E911C0772321F09EE8872F762FC6
:101D400005C0662371F096E8862F70E060E02AF007
:101D50009A95660F771F881FDAF7880F96958795F3
:101D600097F90895990F0008550FAA0BE0E8FEEFC8
:101D700016161706E807F907C0F012161306E4074F
:101D8000F50798F0621B730B840B950B39F40A2648
:101D900061F0232B242B252B21F408950A2609F426
:101DA000A140A6958FEF811D811D08950E94E90E27
:101DB0000C945A0F0E944C0F38F00E94530F20F0E1
:101DC000952311F00C94430F0C94490F11240C949B
:101DD0008E0F0E946B0F70F3959FC1F3950F50E02B
:101DE000551F629FF001729FBB27F00DB11D639FCD
:101DF000AA27F00DB11DAA1F649F6627B00DA11D73
:101E0000661F829F2227B00DA11D621F739FB00D18
:101E1000A11D621F839FA00D611D221F749F332788
:101E2000A00D611D231F849F600D211D822F762F21
:101E30006A2F11249F5750409AF0F1F088234AF0FE
:101E4000EE0FFF1FBB1F661F771F881F915050406A
:101E5000A9F79E3F510580F00C94430F0C948E0F10
:101E60005F3FE4F3983ED4F3869577956795B795F1
:101E7000F795E7959F5FC1F7FE2B880F911D96950B
:101E8000879597F9089597F99F6780E870E060E07B
:101E900008959FEF80EC089500240A941616170603
:101EA00018060906089500240A941216130614064B
:101EB00005060895092E0394000C11F4882352F0AE
:101EC000BB0F40F4BF2B11F460FF04C06F5F7F4F66
:101ED0008F4F9F4F089557FD9058440F551F59F04D
:101EE0005F3F71F04795880F97FB991F61F09F3F07
:101EF00079F087950895121613061406551FF2CF30
:101F00004695F1DF08C0161617061806991FF1CF7F
:101F100086957105610508940895E894BB276627A6
:101F20007727CB0197F90895262FF999FECF1FBA8D
:101F300092BD81BD20BD0FB6F894FA9AF99A0FBEF2
:101F4000019608952F923F924F925F926F927F92E7
:101F50008F929F92AF92BF92CF92DF92EF92FF92B9
:101F60000F931F93CF93DF93CDB7DEB7CA1BDB0B65
:101F70000FB6F894DEBF0FBECDBF09942A8839880A
:101F800048885F846E847D848C849B84AA84B98411
:101F9000C884DF80EE80FD800C811B81AA81B9811D
:101FA000CE0FD11D0FB6F894DEBF0FBECDBFED0131
:101FB00008955058BB27AA270E94F10F0C945A0F7E
:101FC0000E944C0F38F00E94530F20F039F49F3FCD
:101FD00019F426F40C94490F0EF4E095E7FB0C94E9
:101FE000430FE92F0E946B0F58F3BA17620773076C
:101FF0008407950720F079F4A6F50C948D0F0EF464
:10200000E0950B2EBA2FA02D0B01B90190010C0108
:10201000CA01A0011124FF27591B99F0593F50F420
:10202000503E68F11A16F040A22F232F342F442778
:10203000585FF3CF469537952795A795F040539570
:10204000C9F77EF41F16BA0B620B730B840BBAF040
:102050009150A1F0FF0FBB1F661F771F881FC2F7AB
:102060000EC0BA0F621F731F841F48F487957795BF
:102070006795B795F7959E3F08F0B0CF9395880F79
:1020800008F09927EE0F9795879508950E945A10AA
:102090000C945A0F0E94530F58F00E944C0F40F0BE
:1020A00029F45F3F29F00C94430F51110C948E0FCB
:1020B0000C94490F0E946B0F68F39923B1F35523D9
:1020C00091F3951B550BBB27AA276217730784074B
:1020D00038F09F5F5F4F220F331F441FAA1FA9F3E1
:1020E00035D00E2E3AF0E0E832D091505040E695CF
:1020F000001CCAF72BD0FE2F29D0660F771F881F30
:10210000BB1F261737074807AB07B0E809F0BB0B22
:10211000802DBF01FF2793585F4F3AF09E3F510536
:1021200078F00C94430F0C948E0F5F3FE4F3983ECD
:10213000D4F3869577956795B795F7959F5FC9F71F
:10214000880F911D9695879597F90895E1E0660FA0
:10215000771F881FBB1F621773078407BA0720F019
:10216000621B730B840BBA0BEE1F88F7E095089582
:102170000E94BF106894B1110C948E0F08950E94B4
:10218000730F88F09F5798F0B92F9927B751B0F087
:10219000E1F0660F771F881F991F1AF0BA95C9F7EB
:1021A00014C0B13091F00E948D0FB1E008950C94ED
:1021B0008D0F672F782F8827B85F39F0B93FCCF3A0
:1021C000869577956795B395D9F73EF49095809568
:1021D000709561957F4F8F4F9F4F08950E94B20E6B
:1021E00008F48FEF089516F00C9443110C94490FE6
:1021F00068940C94430F0E94730FA8F39923C1F3C2
:10220000AEF3DF93CF931F930F93FF92C92FDD2778
:1022100088232AF02197660F771F881FDAF720E0BE
:1022200030E040E85FEB9FE3883920F0803E38F0F3
:1022300021968F770E94DA0FE8E6F0E004C00E9452
:10224000DA0FE5E9F0E00E9451118B01BE01EC01CB
:10225000FB2E6F5771097595771F880B990B0E949C
:10226000770E28E132E741E35FE30E94E90EAF2DEC
:102270009801AE01FF900F911F91CF91DF910E94C5
:10228000F10F0C945A0F9F3F31F0915020F4879535
:1022900077956795B795880F911D9695879597F9CE
:1022A0000895DF93CF931F930F93FF92EF92DF92E6
:1022B0007B018C01689406C0DA2EEF010E94E90EC2
:1022C000FE01E894A5912591359145915591A6F38C
:1022D000EF010E94F10FFE019701A801DA9469F75E
:1022E000DF90EF90FF900F911F91CF91DF910895B4
:1022F000EE0FFF1F0590F491E02D09940F931F93AB
:10230000CF93DF938230910510F482E090E0E0916A
:102310009002F091910230E020E0B0E0A0E0309730
:1023200099F42115310509F44AC0281B390B2430D2
:102330003105D8F58A819B816115710589F1FB0111
:1023400093838283FE0111C04081518102811381F8
:1023500048175907E0F04817590799F4109761F0AA
:1023600012960C93129713961C933296CF01DF911D
:10237000CF911F910F9108950093900210939102B5
:10238000F4CF2115310551F04217530738F0A90158
:10239000DB019A01BD01DF01F801C1CFEF01F9CFE7
:1023A0009093910280939002CDCFFE01E20FF31F34
:1023B000819391932250310939832883D7CF20917B
:1023C0008E0230918F02232B41F420912401309111
:1023D000250130938F0220938E02209122013091AB
:1023E00023012115310541F42DB73EB74091260157
:1023F00050912701241B350BE0918E02F0918F0242
:10240000E217F307A0F42E1B3F0B2817390778F0CB
:10241000AC014E5F5F4F2417350748F04E0F5F1F2A
:1024200050938F0240938E02819391939FCFF0E05F
:10243000E0E09CCFCF93DF930097E9F0FC01329767
:1024400013821282A0919002B0919102ED0130E0CE
:1024500020E01097A1F420813181820F931F2091F9
:102460008E0230918F022817390709F061C0F0936E
:102470008F02E0938E02DF91CF910895EA01CE178B
:10248000DF07E8F54A815B819E0141155105B1F7EF
:10249000E901FB83EA8349915991C40FD51FEC17D9
:1024A000FD0761F4808191810296840F951FE901F7
:1024B00099838883828193819B838A83F0E0E0E023
:1024C00012968D919C9113970097B9F52D913C919F
:1024D0001197CD010296820F931F20918E023091A9
:1024E0008F022817390739F6309751F5109291026B
:1024F00010929002B0938F02A0938E02BCCFD38330
:10250000C28340815181840F951FC817D90761F498
:102510004E5F5F4F88819981480F591F51834083D7
:102520008A819B81938382832115310509F0B0CF85
:10253000F0939102E09390029ECFFD01DC01C0CFA9
:1025400013821282D7CFB0E0A0E0E9EAF2E10C9466
:10255000A40F8C01009751F4CB010E947E118C01D5
:10256000C801CDB7DEB7E0E10C94C00FFC01E60F67
:10257000F71F9C0122503109E217F30708F49DC0B0
:10258000D901CD91DC911197C617D70798F0C530C6
:10259000D10530F3CE0104978617970708F3C61BC1
:1025A000D70B2297C193D1936D937C93CF010E9457
:1025B0001A12D6CF5B01AC1ABD0A4C018C0E9D1EBF
:1025C000A0919002B0919102512C412CF12CE12C60
:1025D000109731F580918E0290918F0288159905A0
:1025E00009F05CC04616570608F058C080912201D9
:1025F00090912301009741F48DB79EB74091260139
:1026000050912701841B950BE817F90708F055C076
:10261000F0938F02E0938E02F90171836083A0CF63
:102620008D919C91119712966C90129713967C90B5
:102630001397A815B90559F56C0142E0C40ED11CD9
:10264000CA14DB0420F1AC014A195B09DA011296C5
:10265000159780F06282738251834083D9016D9314
:102660007C93E114F10471F0D7011396FC93EE937F
:10267000129776CF22968C0F9D1FF901918380834C
:10268000F301EFCFF0939102E093900269CF4816E7
:10269000590608F42C017D01D3019ACFCB010E9489
:1026A0007E117C01009749F0AE01B8010E946013D1
:1026B000C8010E941A12870153CF10E000E050CFEA
:1026C000FB01DC0102C001900D9241505040D8F74F
:1026D0000895FB01DC0101900D920020E1F70895BF
:1026E00011E0C7E0D1E004C0FE010E9478112196FC
:0A26F000C830D107C9F7F894FFCFF6
:1026FA000102040808040201100804020204081076
:10270A0004040404041F0E04040E1F040404040435
:10271A00680000009202800000004000140054008B
:10272A000A0B0C0D000000001003E3022604B90294
:10273A00DC02C902BA02000000008F043401260438
:10274A0052022E0020202000536574706F696E7447
:10275A0020005365742054656D7020004641494C31
:10276A00534146452E2E48454154004641494C5353
:10277A004146452E2E50554D50004F464600525563
:02278A004E00FF
:00000001FF
